{
	"src/backend/contracts/AaveDeFiApp.sol": {
		"AaveDeFiApp": {
			"abi": [
				{
					"anonymous": false,
					"inputs": [
						{
							"indexed": false,
							"internalType": "address",
							"name": "asset",
							"type": "address"
						},
						{
							"indexed": false,
							"internalType": "uint256",
							"name": "amount",
							"type": "uint256"
						},
						{
							"indexed": false,
							"internalType": "address",
							"name": "onBehalfOf",
							"type": "address"
						},
						{
							"indexed": false,
							"internalType": "uint16",
							"name": "referralCode",
							"type": "uint16"
						}
					],
					"name": "Deposit",
					"type": "event"
				},
				{
					"anonymous": false,
					"inputs": [
						{
							"indexed": false,
							"internalType": "address",
							"name": "reserve",
							"type": "address"
						},
						{
							"indexed": false,
							"internalType": "address",
							"name": "user",
							"type": "address"
						},
						{
							"indexed": false,
							"internalType": "address",
							"name": "to",
							"type": "address"
						},
						{
							"indexed": false,
							"internalType": "uint256",
							"name": "amount",
							"type": "uint256"
						}
					],
					"name": "WithDraw",
					"type": "event"
				},
				{
					"inputs": [],
					"name": "amount",
					"outputs": [
						{
							"internalType": "uint256",
							"name": "",
							"type": "uint256"
						}
					],
					"stateMutability": "view",
					"type": "function"
				},
				{
					"inputs": [
						{
							"internalType": "address",
							"name": "",
							"type": "address"
						},
						{
							"internalType": "address",
							"name": "",
							"type": "address"
						}
					],
					"name": "assets",
					"outputs": [
						{
							"internalType": "uint256",
							"name": "",
							"type": "uint256"
						}
					],
					"stateMutability": "view",
					"type": "function"
				},
				{
					"inputs": [
						{
							"internalType": "address",
							"name": "_asset",
							"type": "address"
						},
						{
							"internalType": "uint256",
							"name": "_amount",
							"type": "uint256"
						},
						{
							"internalType": "address",
							"name": "_onBehalfOf",
							"type": "address"
						},
						{
							"internalType": "uint16",
							"name": "_referralCode",
							"type": "uint16"
						}
					],
					"name": "depositDAI",
					"outputs": [],
					"stateMutability": "nonpayable",
					"type": "function"
				},
				{
					"inputs": [
						{
							"internalType": "address",
							"name": "_asset",
							"type": "address"
						},
						{
							"internalType": "uint256",
							"name": "_amount",
							"type": "uint256"
						},
						{
							"internalType": "address",
							"name": "_onBehalfOf",
							"type": "address"
						},
						{
							"internalType": "uint16",
							"name": "_referralCode",
							"type": "uint16"
						}
					],
					"name": "depositETH",
					"outputs": [],
					"stateMutability": "nonpayable",
					"type": "function"
				},
				{
					"inputs": [
						{
							"internalType": "address",
							"name": "_asset",
							"type": "address"
						},
						{
							"internalType": "uint256",
							"name": "_depositAmount",
							"type": "uint256"
						},
						{
							"internalType": "uint256",
							"name": "_borrowAmount",
							"type": "uint256"
						},
						{
							"internalType": "address",
							"name": "_onBehalfOf",
							"type": "address"
						},
						{
							"internalType": "uint16",
							"name": "_referralCode",
							"type": "uint16"
						}
					],
					"name": "depositETHAndBorrowDAI",
					"outputs": [],
					"stateMutability": "payable",
					"type": "function"
				},
				{
					"inputs": [],
					"name": "to",
					"outputs": [
						{
							"internalType": "address",
							"name": "",
							"type": "address"
						}
					],
					"stateMutability": "view",
					"type": "function"
				}
			],
			"devdoc": {
				"kind": "dev",
				"methods": {},
				"version": 1
			},
			"evm": {
				"assembly": "    /* \"src/backend/contracts/AaveDeFiApp.sol\":337:2320  contract AaveDeFiApp  {... */\n  mstore(0x40, 0x80)\n  callvalue\n  dup1\n  iszero\n  tag_1\n  jumpi\n  0x00\n  dup1\n  revert\ntag_1:\n  pop\n  dataSize(sub_0)\n  dup1\n  dataOffset(sub_0)\n  0x00\n  codecopy\n  0x00\n  return\nstop\n\nsub_0: assembly {\n        /* \"src/backend/contracts/AaveDeFiApp.sol\":337:2320  contract AaveDeFiApp  {... */\n      mstore(0x40, 0x80)\n      jumpi(tag_1, lt(calldatasize, 0x04))\n      shr(0xe0, calldataload(0x00))\n      dup1\n      0x13151981\n      eq\n      tag_2\n      jumpi\n      dup1\n      0x2108234d\n      eq\n      tag_3\n      jumpi\n      dup1\n      0x704e0818\n      eq\n      tag_4\n      jumpi\n      dup1\n      0x7181b77b\n      eq\n      tag_5\n      jumpi\n      dup1\n      0xaa8c217c\n      eq\n      tag_6\n      jumpi\n      dup1\n      0xb95d02fe\n      eq\n      tag_7\n      jumpi\n    tag_1:\n      0x00\n      dup1\n      revert\n        /* \"src/backend/contracts/AaveDeFiApp.sol\":462:479  address public to */\n    tag_2:\n      callvalue\n      dup1\n      iszero\n      tag_8\n      jumpi\n      0x00\n      dup1\n      revert\n    tag_8:\n      pop\n      tag_9\n      tag_10\n      jump\t// in\n    tag_9:\n      mload(0x40)\n      dup1\n      dup3\n      0xffffffffffffffffffffffffffffffffffffffff\n      and\n      dup2\n      mstore\n      0x20\n      add\n      swap2\n      pop\n      pop\n      mload(0x40)\n      dup1\n      swap2\n      sub\n      swap1\n      return\n        /* \"src/backend/contracts/AaveDeFiApp.sol\":365:427  mapping(address => mapping(address => uint256))  public assets */\n    tag_3:\n      callvalue\n      dup1\n      iszero\n      tag_11\n      jumpi\n      0x00\n      dup1\n      revert\n    tag_11:\n      pop\n      tag_12\n      0x04\n      dup1\n      calldatasize\n      sub\n      0x40\n      dup2\n      lt\n      iszero\n      tag_13\n      jumpi\n      0x00\n      dup1\n      revert\n    tag_13:\n      dup2\n      add\n      swap1\n      dup1\n      dup1\n      calldataload\n      0xffffffffffffffffffffffffffffffffffffffff\n      and\n      swap1\n      0x20\n      add\n      swap1\n      swap3\n      swap2\n      swap1\n      dup1\n      calldataload\n      0xffffffffffffffffffffffffffffffffffffffff\n      and\n      swap1\n      0x20\n      add\n      swap1\n      swap3\n      swap2\n      swap1\n      pop\n      pop\n      pop\n      tag_14\n      jump\t// in\n    tag_12:\n      mload(0x40)\n      dup1\n      dup3\n      dup2\n      mstore\n      0x20\n      add\n      swap2\n      pop\n      pop\n      mload(0x40)\n      dup1\n      swap2\n      sub\n      swap1\n      return\n        /* \"src/backend/contracts/AaveDeFiApp.sol\":1211:1580  function depositDAI(address _asset, uint256 _amount, address _onBehalfOf, uint16 _referralCode) public {... */\n    tag_4:\n      callvalue\n      dup1\n      iszero\n      tag_15\n      jumpi\n      0x00\n      dup1\n      revert\n    tag_15:\n      pop\n      tag_16\n      0x04\n      dup1\n      calldatasize\n      sub\n      0x80\n      dup2\n      lt\n      iszero\n      tag_17\n      jumpi\n      0x00\n      dup1\n      revert\n    tag_17:\n      dup2\n      add\n      swap1\n      dup1\n      dup1\n      calldataload\n      0xffffffffffffffffffffffffffffffffffffffff\n      and\n      swap1\n      0x20\n      add\n      swap1\n      swap3\n      swap2\n      swap1\n      dup1\n      calldataload\n      swap1\n      0x20\n      add\n      swap1\n      swap3\n      swap2\n      swap1\n      dup1\n      calldataload\n      0xffffffffffffffffffffffffffffffffffffffff\n      and\n      swap1\n      0x20\n      add\n      swap1\n      swap3\n      swap2\n      swap1\n      dup1\n      calldataload\n      0xffff\n      and\n      swap1\n      0x20\n      add\n      swap1\n      swap3\n      swap2\n      swap1\n      pop\n      pop\n      pop\n      tag_18\n      jump\t// in\n    tag_16:\n      stop\n        /* \"src/backend/contracts/AaveDeFiApp.sol\":786:1154  function depositETH(address _asset, uint256 _amount, address _onBehalfOf, uint16 _referralCode) public {... */\n    tag_5:\n      callvalue\n      dup1\n      iszero\n      tag_19\n      jumpi\n      0x00\n      dup1\n      revert\n    tag_19:\n      pop\n      tag_20\n      0x04\n      dup1\n      calldatasize\n      sub\n      0x80\n      dup2\n      lt\n      iszero\n      tag_21\n      jumpi\n      0x00\n      dup1\n      revert\n    tag_21:\n      dup2\n      add\n      swap1\n      dup1\n      dup1\n      calldataload\n      0xffffffffffffffffffffffffffffffffffffffff\n      and\n      swap1\n      0x20\n      add\n      swap1\n      swap3\n      swap2\n      swap1\n      dup1\n      calldataload\n      swap1\n      0x20\n      add\n      swap1\n      swap3\n      swap2\n      swap1\n      dup1\n      calldataload\n      0xffffffffffffffffffffffffffffffffffffffff\n      and\n      swap1\n      0x20\n      add\n      swap1\n      swap3\n      swap2\n      swap1\n      dup1\n      calldataload\n      0xffff\n      and\n      swap1\n      0x20\n      add\n      swap1\n      swap3\n      swap2\n      swap1\n      pop\n      pop\n      pop\n      tag_22\n      jump\t// in\n    tag_20:\n      stop\n        /* \"src/backend/contracts/AaveDeFiApp.sol\":434:455  uint256 public amount */\n    tag_6:\n      callvalue\n      dup1\n      iszero\n      tag_23\n      jumpi\n      0x00\n      dup1\n      revert\n    tag_23:\n      pop\n      tag_24\n      tag_25\n      jump\t// in\n    tag_24:\n      mload(0x40)\n      dup1\n      dup3\n      dup2\n      mstore\n      0x20\n      add\n      swap2\n      pop\n      pop\n      mload(0x40)\n      dup1\n      swap2\n      sub\n      swap1\n      return\n        /* \"src/backend/contracts/AaveDeFiApp.sol\":1660:2317  function depositETHAndBorrowDAI(... */\n    tag_7:\n      tag_26\n      0x04\n      dup1\n      calldatasize\n      sub\n      0xa0\n      dup2\n      lt\n      iszero\n      tag_27\n      jumpi\n      0x00\n      dup1\n      revert\n    tag_27:\n      dup2\n      add\n      swap1\n      dup1\n      dup1\n      calldataload\n      0xffffffffffffffffffffffffffffffffffffffff\n      and\n      swap1\n      0x20\n      add\n      swap1\n      swap3\n      swap2\n      swap1\n      dup1\n      calldataload\n      swap1\n      0x20\n      add\n      swap1\n      swap3\n      swap2\n      swap1\n      dup1\n      calldataload\n      swap1\n      0x20\n      add\n      swap1\n      swap3\n      swap2\n      swap1\n      dup1\n      calldataload\n      0xffffffffffffffffffffffffffffffffffffffff\n      and\n      swap1\n      0x20\n      add\n      swap1\n      swap3\n      swap2\n      swap1\n      dup1\n      calldataload\n      0xffff\n      and\n      swap1\n      0x20\n      add\n      swap1\n      swap3\n      swap2\n      swap1\n      pop\n      pop\n      pop\n      tag_28\n      jump\t// in\n    tag_26:\n      stop\n        /* \"src/backend/contracts/AaveDeFiApp.sol\":462:479  address public to */\n    tag_10:\n      0x02\n      0x00\n      swap1\n      sload\n      swap1\n      0x0100\n      exp\n      swap1\n      div\n      0xffffffffffffffffffffffffffffffffffffffff\n      and\n      dup2\n      jump\t// out\n        /* \"src/backend/contracts/AaveDeFiApp.sol\":365:427  mapping(address => mapping(address => uint256))  public assets */\n    tag_14:\n      mstore(0x20, 0x00)\n      dup2\n      0x00\n      mstore\n      mstore(0x20, keccak256(0x00, 0x40))\n      dup1\n      0x00\n      mstore\n      keccak256(0x00, 0x40)\n      0x00\n      swap2\n      pop\n      swap2\n      pop\n      pop\n      sload\n      dup2\n      jump\t// out\n        /* \"src/backend/contracts/AaveDeFiApp.sol\":1211:1580  function depositDAI(address _asset, uint256 _amount, address _onBehalfOf, uint16 _referralCode) public {... */\n    tag_18:\n        /* \"src/backend/contracts/AaveDeFiApp.sol\":1338:1339  0 */\n      0x00\n        /* \"src/backend/contracts/AaveDeFiApp.sol\":1328:1335  _amount */\n      dup4\n        /* \"src/backend/contracts/AaveDeFiApp.sol\":1328:1339  _amount > 0 */\n      gt\n        /* \"src/backend/contracts/AaveDeFiApp.sol\":1320:1373  require(_amount > 0, \"Amount must be greater than 0\") */\n      tag_30\n      jumpi\n      mload(0x40)\n      0x08c379a000000000000000000000000000000000000000000000000000000000\n      dup2\n      mstore\n      0x04\n      add\n      dup1\n      dup1\n      0x20\n      add\n      dup3\n      dup2\n      sub\n      dup3\n      mstore\n      0x1d\n      dup2\n      mstore\n      0x20\n      add\n      dup1\n      0x416d6f756e74206d7573742062652067726561746572207468616e2030000000\n      dup2\n      mstore\n      pop\n      0x20\n      add\n      swap2\n      pop\n      pop\n      mload(0x40)\n      dup1\n      swap2\n      sub\n      swap1\n      revert\n    tag_30:\n        /* \"src/backend/contracts/AaveDeFiApp.sol\":1461:1468  _amount */\n      dup3\n        /* \"src/backend/contracts/AaveDeFiApp.sol\":1432:1438  assets */\n      0x00\n        /* \"src/backend/contracts/AaveDeFiApp.sol\":1432:1446  assets[_asset] */\n      dup1\n        /* \"src/backend/contracts/AaveDeFiApp.sol\":1439:1445  _asset */\n      dup7\n        /* \"src/backend/contracts/AaveDeFiApp.sol\":1432:1446  assets[_asset] */\n      0xffffffffffffffffffffffffffffffffffffffff\n      and\n      0xffffffffffffffffffffffffffffffffffffffff\n      and\n      dup2\n      mstore\n      0x20\n      add\n      swap1\n      dup2\n      mstore\n      0x20\n      add\n      0x00\n      keccak256\n        /* \"src/backend/contracts/AaveDeFiApp.sol\":1432:1458  assets[_asset][msg.sender] */\n      0x00\n        /* \"src/backend/contracts/AaveDeFiApp.sol\":1447:1457  msg.sender */\n      caller\n        /* \"src/backend/contracts/AaveDeFiApp.sol\":1432:1458  assets[_asset][msg.sender] */\n      0xffffffffffffffffffffffffffffffffffffffff\n      and\n      0xffffffffffffffffffffffffffffffffffffffff\n      and\n      dup2\n      mstore\n      0x20\n      add\n      swap1\n      dup2\n      mstore\n      0x20\n      add\n      0x00\n      keccak256\n      sload\n        /* \"src/backend/contracts/AaveDeFiApp.sol\":1432:1468  assets[_asset][msg.sender] + _amount */\n      add\n        /* \"src/backend/contracts/AaveDeFiApp.sol\":1403:1409  assets */\n      0x00\n        /* \"src/backend/contracts/AaveDeFiApp.sol\":1403:1417  assets[_asset] */\n      dup1\n        /* \"src/backend/contracts/AaveDeFiApp.sol\":1410:1416  _asset */\n      dup7\n        /* \"src/backend/contracts/AaveDeFiApp.sol\":1403:1417  assets[_asset] */\n      0xffffffffffffffffffffffffffffffffffffffff\n      and\n      0xffffffffffffffffffffffffffffffffffffffff\n      and\n      dup2\n      mstore\n      0x20\n      add\n      swap1\n      dup2\n      mstore\n      0x20\n      add\n      0x00\n      keccak256\n        /* \"src/backend/contracts/AaveDeFiApp.sol\":1403:1429  assets[_asset][msg.sender] */\n      0x00\n        /* \"src/backend/contracts/AaveDeFiApp.sol\":1418:1428  msg.sender */\n      caller\n        /* \"src/backend/contracts/AaveDeFiApp.sol\":1403:1429  assets[_asset][msg.sender] */\n      0xffffffffffffffffffffffffffffffffffffffff\n      and\n      0xffffffffffffffffffffffffffffffffffffffff\n      and\n      dup2\n      mstore\n      0x20\n      add\n      swap1\n      dup2\n      mstore\n      0x20\n      add\n      0x00\n      keccak256\n        /* \"src/backend/contracts/AaveDeFiApp.sol\":1403:1468  assets[_asset][msg.sender] = assets[_asset][msg.sender] + _amount */\n      dup2\n      swap1\n      sstore\n      pop\n        /* \"src/backend/contracts/AaveDeFiApp.sol\":1525:1577  Deposit(_asset, _amount, _onBehalfOf, _referralCode) */\n      0x42270714c8e080cf3fc90c2bf81c4756c5628788e72f50e6d7ba59396eae83b6\n        /* \"src/backend/contracts/AaveDeFiApp.sol\":1533:1539  _asset */\n      dup5\n        /* \"src/backend/contracts/AaveDeFiApp.sol\":1541:1548  _amount */\n      dup5\n        /* \"src/backend/contracts/AaveDeFiApp.sol\":1550:1561  _onBehalfOf */\n      dup5\n        /* \"src/backend/contracts/AaveDeFiApp.sol\":1563:1576  _referralCode */\n      dup5\n        /* \"src/backend/contracts/AaveDeFiApp.sol\":1525:1577  Deposit(_asset, _amount, _onBehalfOf, _referralCode) */\n      mload(0x40)\n      dup1\n      dup6\n      0xffffffffffffffffffffffffffffffffffffffff\n      and\n      dup2\n      mstore\n      0x20\n      add\n      dup5\n      dup2\n      mstore\n      0x20\n      add\n      dup4\n      0xffffffffffffffffffffffffffffffffffffffff\n      and\n      dup2\n      mstore\n      0x20\n      add\n      dup3\n      0xffff\n      and\n      dup2\n      mstore\n      0x20\n      add\n      swap5\n      pop\n      pop\n      pop\n      pop\n      pop\n      mload(0x40)\n      dup1\n      swap2\n      sub\n      swap1\n      log1\n        /* \"src/backend/contracts/AaveDeFiApp.sol\":1211:1580  function depositDAI(address _asset, uint256 _amount, address _onBehalfOf, uint16 _referralCode) public {... */\n      pop\n      pop\n      pop\n      pop\n      jump\t// out\n        /* \"src/backend/contracts/AaveDeFiApp.sol\":786:1154  function depositETH(address _asset, uint256 _amount, address _onBehalfOf, uint16 _referralCode) public {... */\n    tag_22:\n        /* \"src/backend/contracts/AaveDeFiApp.sol\":913:914  0 */\n      0x00\n        /* \"src/backend/contracts/AaveDeFiApp.sol\":903:910  _amount */\n      dup4\n        /* \"src/backend/contracts/AaveDeFiApp.sol\":903:914  _amount > 0 */\n      gt\n        /* \"src/backend/contracts/AaveDeFiApp.sol\":895:948  require(_amount > 0, \"Amount must be greater than 0\") */\n      tag_32\n      jumpi\n      mload(0x40)\n      0x08c379a000000000000000000000000000000000000000000000000000000000\n      dup2\n      mstore\n      0x04\n      add\n      dup1\n      dup1\n      0x20\n      add\n      dup3\n      dup2\n      sub\n      dup3\n      mstore\n      0x1d\n      dup2\n      mstore\n      0x20\n      add\n      dup1\n      0x416d6f756e74206d7573742062652067726561746572207468616e2030000000\n      dup2\n      mstore\n      pop\n      0x20\n      add\n      swap2\n      pop\n      pop\n      mload(0x40)\n      dup1\n      swap2\n      sub\n      swap1\n      revert\n    tag_32:\n        /* \"src/backend/contracts/AaveDeFiApp.sol\":1036:1043  _amount */\n      dup3\n        /* \"src/backend/contracts/AaveDeFiApp.sol\":1007:1013  assets */\n      0x00\n        /* \"src/backend/contracts/AaveDeFiApp.sol\":1007:1021  assets[_asset] */\n      dup1\n        /* \"src/backend/contracts/AaveDeFiApp.sol\":1014:1020  _asset */\n      dup7\n        /* \"src/backend/contracts/AaveDeFiApp.sol\":1007:1021  assets[_asset] */\n      0xffffffffffffffffffffffffffffffffffffffff\n      and\n      0xffffffffffffffffffffffffffffffffffffffff\n      and\n      dup2\n      mstore\n      0x20\n      add\n      swap1\n      dup2\n      mstore\n      0x20\n      add\n      0x00\n      keccak256\n        /* \"src/backend/contracts/AaveDeFiApp.sol\":1007:1033  assets[_asset][msg.sender] */\n      0x00\n        /* \"src/backend/contracts/AaveDeFiApp.sol\":1022:1032  msg.sender */\n      caller\n        /* \"src/backend/contracts/AaveDeFiApp.sol\":1007:1033  assets[_asset][msg.sender] */\n      0xffffffffffffffffffffffffffffffffffffffff\n      and\n      0xffffffffffffffffffffffffffffffffffffffff\n      and\n      dup2\n      mstore\n      0x20\n      add\n      swap1\n      dup2\n      mstore\n      0x20\n      add\n      0x00\n      keccak256\n      sload\n        /* \"src/backend/contracts/AaveDeFiApp.sol\":1007:1043  assets[_asset][msg.sender] + _amount */\n      add\n        /* \"src/backend/contracts/AaveDeFiApp.sol\":978:984  assets */\n      0x00\n        /* \"src/backend/contracts/AaveDeFiApp.sol\":978:992  assets[_asset] */\n      dup1\n        /* \"src/backend/contracts/AaveDeFiApp.sol\":985:991  _asset */\n      dup7\n        /* \"src/backend/contracts/AaveDeFiApp.sol\":978:992  assets[_asset] */\n      0xffffffffffffffffffffffffffffffffffffffff\n      and\n      0xffffffffffffffffffffffffffffffffffffffff\n      and\n      dup2\n      mstore\n      0x20\n      add\n      swap1\n      dup2\n      mstore\n      0x20\n      add\n      0x00\n      keccak256\n        /* \"src/backend/contracts/AaveDeFiApp.sol\":978:1004  assets[_asset][msg.sender] */\n      0x00\n        /* \"src/backend/contracts/AaveDeFiApp.sol\":993:1003  msg.sender */\n      caller\n        /* \"src/backend/contracts/AaveDeFiApp.sol\":978:1004  assets[_asset][msg.sender] */\n      0xffffffffffffffffffffffffffffffffffffffff\n      and\n      0xffffffffffffffffffffffffffffffffffffffff\n      and\n      dup2\n      mstore\n      0x20\n      add\n      swap1\n      dup2\n      mstore\n      0x20\n      add\n      0x00\n      keccak256\n        /* \"src/backend/contracts/AaveDeFiApp.sol\":978:1043  assets[_asset][msg.sender] = assets[_asset][msg.sender] + _amount */\n      dup2\n      swap1\n      sstore\n      pop\n        /* \"src/backend/contracts/AaveDeFiApp.sol\":1099:1151  Deposit(_asset, _amount, _onBehalfOf, _referralCode) */\n      0x42270714c8e080cf3fc90c2bf81c4756c5628788e72f50e6d7ba59396eae83b6\n        /* \"src/backend/contracts/AaveDeFiApp.sol\":1107:1113  _asset */\n      dup5\n        /* \"src/backend/contracts/AaveDeFiApp.sol\":1115:1122  _amount */\n      dup5\n        /* \"src/backend/contracts/AaveDeFiApp.sol\":1124:1135  _onBehalfOf */\n      dup5\n        /* \"src/backend/contracts/AaveDeFiApp.sol\":1137:1150  _referralCode */\n      dup5\n        /* \"src/backend/contracts/AaveDeFiApp.sol\":1099:1151  Deposit(_asset, _amount, _onBehalfOf, _referralCode) */\n      mload(0x40)\n      dup1\n      dup6\n      0xffffffffffffffffffffffffffffffffffffffff\n      and\n      dup2\n      mstore\n      0x20\n      add\n      dup5\n      dup2\n      mstore\n      0x20\n      add\n      dup4\n      0xffffffffffffffffffffffffffffffffffffffff\n      and\n      dup2\n      mstore\n      0x20\n      add\n      dup3\n      0xffff\n      and\n      dup2\n      mstore\n      0x20\n      add\n      swap5\n      pop\n      pop\n      pop\n      pop\n      pop\n      mload(0x40)\n      dup1\n      swap2\n      sub\n      swap1\n      log1\n        /* \"src/backend/contracts/AaveDeFiApp.sol\":786:1154  function depositETH(address _asset, uint256 _amount, address _onBehalfOf, uint16 _referralCode) public {... */\n      pop\n      pop\n      pop\n      pop\n      jump\t// out\n        /* \"src/backend/contracts/AaveDeFiApp.sol\":434:455  uint256 public amount */\n    tag_25:\n      sload(0x01)\n      dup2\n      jump\t// out\n        /* \"src/backend/contracts/AaveDeFiApp.sol\":1660:2317  function depositETHAndBorrowDAI(... */\n    tag_28:\n        /* \"src/backend/contracts/AaveDeFiApp.sol\":1869:1882  _borrowAmount */\n      dup3\n        /* \"src/backend/contracts/AaveDeFiApp.sol\":1851:1865  _depositAmount */\n      dup5\n        /* \"src/backend/contracts/AaveDeFiApp.sol\":1851:1882  _depositAmount == _borrowAmount */\n      eq\n        /* \"src/backend/contracts/AaveDeFiApp.sol\":1843:1926  require(_depositAmount == _borrowAmount, \"Deposit amount must equal borrow amount\") */\n      tag_34\n      jumpi\n      mload(0x40)\n      0x08c379a000000000000000000000000000000000000000000000000000000000\n      dup2\n      mstore\n      0x04\n      add\n      dup1\n      dup1\n      0x20\n      add\n      dup3\n      dup2\n      sub\n      dup3\n      mstore\n      0x27\n      dup2\n      mstore\n      0x20\n      add\n      dup1\n      data_2de029717b6ba8b1894f87b973e10c95a340601794c7ce09b159ef0913eb355d\n      0x27\n      swap2\n      codecopy\n      0x40\n      add\n      swap2\n      pop\n      pop\n      mload(0x40)\n      dup1\n      swap2\n      sub\n      swap1\n      revert\n    tag_34:\n        /* \"src/backend/contracts/AaveDeFiApp.sol\":2014:2028  _depositAmount */\n      dup4\n        /* \"src/backend/contracts/AaveDeFiApp.sol\":1985:1991  assets */\n      0x00\n        /* \"src/backend/contracts/AaveDeFiApp.sol\":1985:1999  assets[_asset] */\n      dup1\n        /* \"src/backend/contracts/AaveDeFiApp.sol\":1992:1998  _asset */\n      dup8\n        /* \"src/backend/contracts/AaveDeFiApp.sol\":1985:1999  assets[_asset] */\n      0xffffffffffffffffffffffffffffffffffffffff\n      and\n      0xffffffffffffffffffffffffffffffffffffffff\n      and\n      dup2\n      mstore\n      0x20\n      add\n      swap1\n      dup2\n      mstore\n      0x20\n      add\n      0x00\n      keccak256\n        /* \"src/backend/contracts/AaveDeFiApp.sol\":1985:2011  assets[_asset][msg.sender] */\n      0x00\n        /* \"src/backend/contracts/AaveDeFiApp.sol\":2000:2010  msg.sender */\n      caller\n        /* \"src/backend/contracts/AaveDeFiApp.sol\":1985:2011  assets[_asset][msg.sender] */\n      0xffffffffffffffffffffffffffffffffffffffff\n      and\n      0xffffffffffffffffffffffffffffffffffffffff\n      and\n      dup2\n      mstore\n      0x20\n      add\n      swap1\n      dup2\n      mstore\n      0x20\n      add\n      0x00\n      keccak256\n      sload\n        /* \"src/backend/contracts/AaveDeFiApp.sol\":1985:2028  assets[_asset][msg.sender] + _depositAmount */\n      add\n        /* \"src/backend/contracts/AaveDeFiApp.sol\":1956:1962  assets */\n      0x00\n        /* \"src/backend/contracts/AaveDeFiApp.sol\":1956:1970  assets[_asset] */\n      dup1\n        /* \"src/backend/contracts/AaveDeFiApp.sol\":1963:1969  _asset */\n      dup8\n        /* \"src/backend/contracts/AaveDeFiApp.sol\":1956:1970  assets[_asset] */\n      0xffffffffffffffffffffffffffffffffffffffff\n      and\n      0xffffffffffffffffffffffffffffffffffffffff\n      and\n      dup2\n      mstore\n      0x20\n      add\n      swap1\n      dup2\n      mstore\n      0x20\n      add\n      0x00\n      keccak256\n        /* \"src/backend/contracts/AaveDeFiApp.sol\":1956:1982  assets[_asset][msg.sender] */\n      0x00\n        /* \"src/backend/contracts/AaveDeFiApp.sol\":1971:1981  msg.sender */\n      caller\n        /* \"src/backend/contracts/AaveDeFiApp.sol\":1956:1982  assets[_asset][msg.sender] */\n      0xffffffffffffffffffffffffffffffffffffffff\n      and\n      0xffffffffffffffffffffffffffffffffffffffff\n      and\n      dup2\n      mstore\n      0x20\n      add\n      swap1\n      dup2\n      mstore\n      0x20\n      add\n      0x00\n      keccak256\n        /* \"src/backend/contracts/AaveDeFiApp.sol\":1956:2028  assets[_asset][msg.sender] = assets[_asset][msg.sender] + _depositAmount */\n      dup2\n      swap1\n      sstore\n      pop\n        /* \"src/backend/contracts/AaveDeFiApp.sol\":2084:2143  Deposit(_asset, _depositAmount, _onBehalfOf, _referralCode) */\n      0x42270714c8e080cf3fc90c2bf81c4756c5628788e72f50e6d7ba59396eae83b6\n        /* \"src/backend/contracts/AaveDeFiApp.sol\":2092:2098  _asset */\n      dup6\n        /* \"src/backend/contracts/AaveDeFiApp.sol\":2100:2114  _depositAmount */\n      dup6\n        /* \"src/backend/contracts/AaveDeFiApp.sol\":2116:2127  _onBehalfOf */\n      dup5\n        /* \"src/backend/contracts/AaveDeFiApp.sol\":2129:2142  _referralCode */\n      dup5\n        /* \"src/backend/contracts/AaveDeFiApp.sol\":2084:2143  Deposit(_asset, _depositAmount, _onBehalfOf, _referralCode) */\n      mload(0x40)\n      dup1\n      dup6\n      0xffffffffffffffffffffffffffffffffffffffff\n      and\n      dup2\n      mstore\n      0x20\n      add\n      dup5\n      dup2\n      mstore\n      0x20\n      add\n      dup4\n      0xffffffffffffffffffffffffffffffffffffffff\n      and\n      dup2\n      mstore\n      0x20\n      add\n      dup3\n      0xffff\n      and\n      dup2\n      mstore\n      0x20\n      add\n      swap5\n      pop\n      pop\n      pop\n      pop\n      pop\n      mload(0x40)\n      dup1\n      swap2\n      sub\n      swap1\n      log1\n        /* \"src/backend/contracts/AaveDeFiApp.sol\":2240:2284  WithDraw(address(0), msg.sender, to, amount) */\n      0x4f7e6a99a5c94b3f3e0645725e695a02ed58da3418cf01dfa74b734ee3468f6e\n        /* \"src/backend/contracts/AaveDeFiApp.sol\":2257:2258  0 */\n      0x00\n        /* \"src/backend/contracts/AaveDeFiApp.sol\":2261:2271  msg.sender */\n      caller\n        /* \"src/backend/contracts/AaveDeFiApp.sol\":2273:2275  to */\n      0x02\n      0x00\n      swap1\n      sload\n      swap1\n      0x0100\n      exp\n      swap1\n      div\n      0xffffffffffffffffffffffffffffffffffffffff\n      and\n        /* \"src/backend/contracts/AaveDeFiApp.sol\":2277:2283  amount */\n      sload(0x01)\n        /* \"src/backend/contracts/AaveDeFiApp.sol\":2240:2284  WithDraw(address(0), msg.sender, to, amount) */\n      mload(0x40)\n      dup1\n      dup6\n      0xffffffffffffffffffffffffffffffffffffffff\n      and\n      dup2\n      mstore\n      0x20\n      add\n      dup5\n      0xffffffffffffffffffffffffffffffffffffffff\n      and\n      dup2\n      mstore\n      0x20\n      add\n      dup4\n      0xffffffffffffffffffffffffffffffffffffffff\n      and\n      dup2\n      mstore\n      0x20\n      add\n      dup3\n      dup2\n      mstore\n      0x20\n      add\n      swap5\n      pop\n      pop\n      pop\n      pop\n      pop\n      mload(0x40)\n      dup1\n      swap2\n      sub\n      swap1\n      log1\n        /* \"src/backend/contracts/AaveDeFiApp.sol\":1660:2317  function depositETHAndBorrowDAI(... */\n      pop\n      pop\n      pop\n      pop\n      pop\n      jump\t// out\n    stop\n    data_2de029717b6ba8b1894f87b973e10c95a340601794c7ce09b159ef0913eb355d 4465706f73697420616d6f756e74206d75737420657175616c20626f72726f7720616d6f756e74\n\n    auxdata: 0xa264697066735822122083309aefd5cdd46a74690a0ad24f42cd4695c2fd686179f8407885c056e53f2664736f6c634300060c0033\n}\n",
				"bytecode": {
					"linkReferences": {},
					"object": "608060405234801561001057600080fd5b50610a12806100206000396000f3fe6080604052600436106100555760003560e01c8063131519811461005a5780632108234d1461009b578063704e0818146101205780637181b77b146101a9578063aa8c217c14610232578063b95d02fe1461025d575b600080fd5b34801561006657600080fd5b5061006f6102e3565b604051808273ffffffffffffffffffffffffffffffffffffffff16815260200191505060405180910390f35b3480156100a757600080fd5b5061010a600480360360408110156100be57600080fd5b81019080803573ffffffffffffffffffffffffffffffffffffffff169060200190929190803573ffffffffffffffffffffffffffffffffffffffff169060200190929190505050610309565b6040518082815260200191505060405180910390f35b34801561012c57600080fd5b506101a76004803603608081101561014357600080fd5b81019080803573ffffffffffffffffffffffffffffffffffffffff16906020019092919080359060200190929190803573ffffffffffffffffffffffffffffffffffffffff169060200190929190803561ffff16906020019092919050505061032e565b005b3480156101b557600080fd5b50610230600480360360808110156101cc57600080fd5b81019080803573ffffffffffffffffffffffffffffffffffffffff16906020019092919080359060200190929190803573ffffffffffffffffffffffffffffffffffffffff169060200190929190803561ffff169060200190929190505050610526565b005b34801561023e57600080fd5b5061024761071e565b6040518082815260200191505060405180910390f35b6102e1600480360360a081101561027357600080fd5b81019080803573ffffffffffffffffffffffffffffffffffffffff1690602001909291908035906020019092919080359060200190929190803573ffffffffffffffffffffffffffffffffffffffff169060200190929190803561ffff169060200190929190505050610724565b005b600260009054906101000a900473ffffffffffffffffffffffffffffffffffffffff1681565b6000602052816000526040600020602052806000526040600020600091509150505481565b600083116103a4576040517f08c379a000000000000000000000000000000000000000000000000000000000815260040180806020018281038252601d8152602001807f416d6f756e74206d7573742062652067726561746572207468616e203000000081525060200191505060405180910390fd5b826000808673ffffffffffffffffffffffffffffffffffffffff1673ffffffffffffffffffffffffffffffffffffffff16815260200190815260200160002060003373ffffffffffffffffffffffffffffffffffffffff1673ffffffffffffffffffffffffffffffffffffffff16815260200190815260200160002054016000808673ffffffffffffffffffffffffffffffffffffffff1673ffffffffffffffffffffffffffffffffffffffff16815260200190815260200160002060003373ffffffffffffffffffffffffffffffffffffffff1673ffffffffffffffffffffffffffffffffffffffff168152602001908152602001600020819055507f42270714c8e080cf3fc90c2bf81c4756c5628788e72f50e6d7ba59396eae83b684848484604051808573ffffffffffffffffffffffffffffffffffffffff1681526020018481526020018373ffffffffffffffffffffffffffffffffffffffff1681526020018261ffff16815260200194505050505060405180910390a150505050565b6000831161059c576040517f08c379a000000000000000000000000000000000000000000000000000000000815260040180806020018281038252601d8152602001807f416d6f756e74206d7573742062652067726561746572207468616e203000000081525060200191505060405180910390fd5b826000808673ffffffffffffffffffffffffffffffffffffffff1673ffffffffffffffffffffffffffffffffffffffff16815260200190815260200160002060003373ffffffffffffffffffffffffffffffffffffffff1673ffffffffffffffffffffffffffffffffffffffff16815260200190815260200160002054016000808673ffffffffffffffffffffffffffffffffffffffff1673ffffffffffffffffffffffffffffffffffffffff16815260200190815260200160002060003373ffffffffffffffffffffffffffffffffffffffff1673ffffffffffffffffffffffffffffffffffffffff168152602001908152602001600020819055507f42270714c8e080cf3fc90c2bf81c4756c5628788e72f50e6d7ba59396eae83b684848484604051808573ffffffffffffffffffffffffffffffffffffffff1681526020018481526020018373ffffffffffffffffffffffffffffffffffffffff1681526020018261ffff16815260200194505050505060405180910390a150505050565b60015481565b82841461077c576040517f08c379a00000000000000000000000000000000000000000000000000000000081526004018080602001828103825260278152602001806109b66027913960400191505060405180910390fd5b836000808773ffffffffffffffffffffffffffffffffffffffff1673ffffffffffffffffffffffffffffffffffffffff16815260200190815260200160002060003373ffffffffffffffffffffffffffffffffffffffff1673ffffffffffffffffffffffffffffffffffffffff16815260200190815260200160002054016000808773ffffffffffffffffffffffffffffffffffffffff1673ffffffffffffffffffffffffffffffffffffffff16815260200190815260200160002060003373ffffffffffffffffffffffffffffffffffffffff1673ffffffffffffffffffffffffffffffffffffffff168152602001908152602001600020819055507f42270714c8e080cf3fc90c2bf81c4756c5628788e72f50e6d7ba59396eae83b685858484604051808573ffffffffffffffffffffffffffffffffffffffff1681526020018481526020018373ffffffffffffffffffffffffffffffffffffffff1681526020018261ffff16815260200194505050505060405180910390a17f4f7e6a99a5c94b3f3e0645725e695a02ed58da3418cf01dfa74b734ee3468f6e600033600260009054906101000a900473ffffffffffffffffffffffffffffffffffffffff16600154604051808573ffffffffffffffffffffffffffffffffffffffff1681526020018473ffffffffffffffffffffffffffffffffffffffff1681526020018373ffffffffffffffffffffffffffffffffffffffff16815260200182815260200194505050505060405180910390a1505050505056fe4465706f73697420616d6f756e74206d75737420657175616c20626f72726f7720616d6f756e74a264697066735822122083309aefd5cdd46a74690a0ad24f42cd4695c2fd686179f8407885c056e53f2664736f6c634300060c0033",
					"opcodes": "PUSH1 0x80 PUSH1 0x40 MSTORE CALLVALUE DUP1 ISZERO PUSH2 0x10 JUMPI PUSH1 0x0 DUP1 REVERT JUMPDEST POP PUSH2 0xA12 DUP1 PUSH2 0x20 PUSH1 0x0 CODECOPY PUSH1 0x0 RETURN INVALID PUSH1 0x80 PUSH1 0x40 MSTORE PUSH1 0x4 CALLDATASIZE LT PUSH2 0x55 JUMPI PUSH1 0x0 CALLDATALOAD PUSH1 0xE0 SHR DUP1 PUSH4 0x13151981 EQ PUSH2 0x5A JUMPI DUP1 PUSH4 0x2108234D EQ PUSH2 0x9B JUMPI DUP1 PUSH4 0x704E0818 EQ PUSH2 0x120 JUMPI DUP1 PUSH4 0x7181B77B EQ PUSH2 0x1A9 JUMPI DUP1 PUSH4 0xAA8C217C EQ PUSH2 0x232 JUMPI DUP1 PUSH4 0xB95D02FE EQ PUSH2 0x25D JUMPI JUMPDEST PUSH1 0x0 DUP1 REVERT JUMPDEST CALLVALUE DUP1 ISZERO PUSH2 0x66 JUMPI PUSH1 0x0 DUP1 REVERT JUMPDEST POP PUSH2 0x6F PUSH2 0x2E3 JUMP JUMPDEST PUSH1 0x40 MLOAD DUP1 DUP3 PUSH20 0xFFFFFFFFFFFFFFFFFFFFFFFFFFFFFFFFFFFFFFFF AND DUP2 MSTORE PUSH1 0x20 ADD SWAP2 POP POP PUSH1 0x40 MLOAD DUP1 SWAP2 SUB SWAP1 RETURN JUMPDEST CALLVALUE DUP1 ISZERO PUSH2 0xA7 JUMPI PUSH1 0x0 DUP1 REVERT JUMPDEST POP PUSH2 0x10A PUSH1 0x4 DUP1 CALLDATASIZE SUB PUSH1 0x40 DUP2 LT ISZERO PUSH2 0xBE JUMPI PUSH1 0x0 DUP1 REVERT JUMPDEST DUP2 ADD SWAP1 DUP1 DUP1 CALLDATALOAD PUSH20 0xFFFFFFFFFFFFFFFFFFFFFFFFFFFFFFFFFFFFFFFF AND SWAP1 PUSH1 0x20 ADD SWAP1 SWAP3 SWAP2 SWAP1 DUP1 CALLDATALOAD PUSH20 0xFFFFFFFFFFFFFFFFFFFFFFFFFFFFFFFFFFFFFFFF AND SWAP1 PUSH1 0x20 ADD SWAP1 SWAP3 SWAP2 SWAP1 POP POP POP PUSH2 0x309 JUMP JUMPDEST PUSH1 0x40 MLOAD DUP1 DUP3 DUP2 MSTORE PUSH1 0x20 ADD SWAP2 POP POP PUSH1 0x40 MLOAD DUP1 SWAP2 SUB SWAP1 RETURN JUMPDEST CALLVALUE DUP1 ISZERO PUSH2 0x12C JUMPI PUSH1 0x0 DUP1 REVERT JUMPDEST POP PUSH2 0x1A7 PUSH1 0x4 DUP1 CALLDATASIZE SUB PUSH1 0x80 DUP2 LT ISZERO PUSH2 0x143 JUMPI PUSH1 0x0 DUP1 REVERT JUMPDEST DUP2 ADD SWAP1 DUP1 DUP1 CALLDATALOAD PUSH20 0xFFFFFFFFFFFFFFFFFFFFFFFFFFFFFFFFFFFFFFFF AND SWAP1 PUSH1 0x20 ADD SWAP1 SWAP3 SWAP2 SWAP1 DUP1 CALLDATALOAD SWAP1 PUSH1 0x20 ADD SWAP1 SWAP3 SWAP2 SWAP1 DUP1 CALLDATALOAD PUSH20 0xFFFFFFFFFFFFFFFFFFFFFFFFFFFFFFFFFFFFFFFF AND SWAP1 PUSH1 0x20 ADD SWAP1 SWAP3 SWAP2 SWAP1 DUP1 CALLDATALOAD PUSH2 0xFFFF AND SWAP1 PUSH1 0x20 ADD SWAP1 SWAP3 SWAP2 SWAP1 POP POP POP PUSH2 0x32E JUMP JUMPDEST STOP JUMPDEST CALLVALUE DUP1 ISZERO PUSH2 0x1B5 JUMPI PUSH1 0x0 DUP1 REVERT JUMPDEST POP PUSH2 0x230 PUSH1 0x4 DUP1 CALLDATASIZE SUB PUSH1 0x80 DUP2 LT ISZERO PUSH2 0x1CC JUMPI PUSH1 0x0 DUP1 REVERT JUMPDEST DUP2 ADD SWAP1 DUP1 DUP1 CALLDATALOAD PUSH20 0xFFFFFFFFFFFFFFFFFFFFFFFFFFFFFFFFFFFFFFFF AND SWAP1 PUSH1 0x20 ADD SWAP1 SWAP3 SWAP2 SWAP1 DUP1 CALLDATALOAD SWAP1 PUSH1 0x20 ADD SWAP1 SWAP3 SWAP2 SWAP1 DUP1 CALLDATALOAD PUSH20 0xFFFFFFFFFFFFFFFFFFFFFFFFFFFFFFFFFFFFFFFF AND SWAP1 PUSH1 0x20 ADD SWAP1 SWAP3 SWAP2 SWAP1 DUP1 CALLDATALOAD PUSH2 0xFFFF AND SWAP1 PUSH1 0x20 ADD SWAP1 SWAP3 SWAP2 SWAP1 POP POP POP PUSH2 0x526 JUMP JUMPDEST STOP JUMPDEST CALLVALUE DUP1 ISZERO PUSH2 0x23E JUMPI PUSH1 0x0 DUP1 REVERT JUMPDEST POP PUSH2 0x247 PUSH2 0x71E JUMP JUMPDEST PUSH1 0x40 MLOAD DUP1 DUP3 DUP2 MSTORE PUSH1 0x20 ADD SWAP2 POP POP PUSH1 0x40 MLOAD DUP1 SWAP2 SUB SWAP1 RETURN JUMPDEST PUSH2 0x2E1 PUSH1 0x4 DUP1 CALLDATASIZE SUB PUSH1 0xA0 DUP2 LT ISZERO PUSH2 0x273 JUMPI PUSH1 0x0 DUP1 REVERT JUMPDEST DUP2 ADD SWAP1 DUP1 DUP1 CALLDATALOAD PUSH20 0xFFFFFFFFFFFFFFFFFFFFFFFFFFFFFFFFFFFFFFFF AND SWAP1 PUSH1 0x20 ADD SWAP1 SWAP3 SWAP2 SWAP1 DUP1 CALLDATALOAD SWAP1 PUSH1 0x20 ADD SWAP1 SWAP3 SWAP2 SWAP1 DUP1 CALLDATALOAD SWAP1 PUSH1 0x20 ADD SWAP1 SWAP3 SWAP2 SWAP1 DUP1 CALLDATALOAD PUSH20 0xFFFFFFFFFFFFFFFFFFFFFFFFFFFFFFFFFFFFFFFF AND SWAP1 PUSH1 0x20 ADD SWAP1 SWAP3 SWAP2 SWAP1 DUP1 CALLDATALOAD PUSH2 0xFFFF AND SWAP1 PUSH1 0x20 ADD SWAP1 SWAP3 SWAP2 SWAP1 POP POP POP PUSH2 0x724 JUMP JUMPDEST STOP JUMPDEST PUSH1 0x2 PUSH1 0x0 SWAP1 SLOAD SWAP1 PUSH2 0x100 EXP SWAP1 DIV PUSH20 0xFFFFFFFFFFFFFFFFFFFFFFFFFFFFFFFFFFFFFFFF AND DUP2 JUMP JUMPDEST PUSH1 0x0 PUSH1 0x20 MSTORE DUP2 PUSH1 0x0 MSTORE PUSH1 0x40 PUSH1 0x0 KECCAK256 PUSH1 0x20 MSTORE DUP1 PUSH1 0x0 MSTORE PUSH1 0x40 PUSH1 0x0 KECCAK256 PUSH1 0x0 SWAP2 POP SWAP2 POP POP SLOAD DUP2 JUMP JUMPDEST PUSH1 0x0 DUP4 GT PUSH2 0x3A4 JUMPI PUSH1 0x40 MLOAD PUSH32 0x8C379A000000000000000000000000000000000000000000000000000000000 DUP2 MSTORE PUSH1 0x4 ADD DUP1 DUP1 PUSH1 0x20 ADD DUP3 DUP2 SUB DUP3 MSTORE PUSH1 0x1D DUP2 MSTORE PUSH1 0x20 ADD DUP1 PUSH32 0x416D6F756E74206D7573742062652067726561746572207468616E2030000000 DUP2 MSTORE POP PUSH1 0x20 ADD SWAP2 POP POP PUSH1 0x40 MLOAD DUP1 SWAP2 SUB SWAP1 REVERT JUMPDEST DUP3 PUSH1 0x0 DUP1 DUP7 PUSH20 0xFFFFFFFFFFFFFFFFFFFFFFFFFFFFFFFFFFFFFFFF AND PUSH20 0xFFFFFFFFFFFFFFFFFFFFFFFFFFFFFFFFFFFFFFFF AND DUP2 MSTORE PUSH1 0x20 ADD SWAP1 DUP2 MSTORE PUSH1 0x20 ADD PUSH1 0x0 KECCAK256 PUSH1 0x0 CALLER PUSH20 0xFFFFFFFFFFFFFFFFFFFFFFFFFFFFFFFFFFFFFFFF AND PUSH20 0xFFFFFFFFFFFFFFFFFFFFFFFFFFFFFFFFFFFFFFFF AND DUP2 MSTORE PUSH1 0x20 ADD SWAP1 DUP2 MSTORE PUSH1 0x20 ADD PUSH1 0x0 KECCAK256 SLOAD ADD PUSH1 0x0 DUP1 DUP7 PUSH20 0xFFFFFFFFFFFFFFFFFFFFFFFFFFFFFFFFFFFFFFFF AND PUSH20 0xFFFFFFFFFFFFFFFFFFFFFFFFFFFFFFFFFFFFFFFF AND DUP2 MSTORE PUSH1 0x20 ADD SWAP1 DUP2 MSTORE PUSH1 0x20 ADD PUSH1 0x0 KECCAK256 PUSH1 0x0 CALLER PUSH20 0xFFFFFFFFFFFFFFFFFFFFFFFFFFFFFFFFFFFFFFFF AND PUSH20 0xFFFFFFFFFFFFFFFFFFFFFFFFFFFFFFFFFFFFFFFF AND DUP2 MSTORE PUSH1 0x20 ADD SWAP1 DUP2 MSTORE PUSH1 0x20 ADD PUSH1 0x0 KECCAK256 DUP2 SWAP1 SSTORE POP PUSH32 0x42270714C8E080CF3FC90C2BF81C4756C5628788E72F50E6D7BA59396EAE83B6 DUP5 DUP5 DUP5 DUP5 PUSH1 0x40 MLOAD DUP1 DUP6 PUSH20 0xFFFFFFFFFFFFFFFFFFFFFFFFFFFFFFFFFFFFFFFF AND DUP2 MSTORE PUSH1 0x20 ADD DUP5 DUP2 MSTORE PUSH1 0x20 ADD DUP4 PUSH20 0xFFFFFFFFFFFFFFFFFFFFFFFFFFFFFFFFFFFFFFFF AND DUP2 MSTORE PUSH1 0x20 ADD DUP3 PUSH2 0xFFFF AND DUP2 MSTORE PUSH1 0x20 ADD SWAP5 POP POP POP POP POP PUSH1 0x40 MLOAD DUP1 SWAP2 SUB SWAP1 LOG1 POP POP POP POP JUMP JUMPDEST PUSH1 0x0 DUP4 GT PUSH2 0x59C JUMPI PUSH1 0x40 MLOAD PUSH32 0x8C379A000000000000000000000000000000000000000000000000000000000 DUP2 MSTORE PUSH1 0x4 ADD DUP1 DUP1 PUSH1 0x20 ADD DUP3 DUP2 SUB DUP3 MSTORE PUSH1 0x1D DUP2 MSTORE PUSH1 0x20 ADD DUP1 PUSH32 0x416D6F756E74206D7573742062652067726561746572207468616E2030000000 DUP2 MSTORE POP PUSH1 0x20 ADD SWAP2 POP POP PUSH1 0x40 MLOAD DUP1 SWAP2 SUB SWAP1 REVERT JUMPDEST DUP3 PUSH1 0x0 DUP1 DUP7 PUSH20 0xFFFFFFFFFFFFFFFFFFFFFFFFFFFFFFFFFFFFFFFF AND PUSH20 0xFFFFFFFFFFFFFFFFFFFFFFFFFFFFFFFFFFFFFFFF AND DUP2 MSTORE PUSH1 0x20 ADD SWAP1 DUP2 MSTORE PUSH1 0x20 ADD PUSH1 0x0 KECCAK256 PUSH1 0x0 CALLER PUSH20 0xFFFFFFFFFFFFFFFFFFFFFFFFFFFFFFFFFFFFFFFF AND PUSH20 0xFFFFFFFFFFFFFFFFFFFFFFFFFFFFFFFFFFFFFFFF AND DUP2 MSTORE PUSH1 0x20 ADD SWAP1 DUP2 MSTORE PUSH1 0x20 ADD PUSH1 0x0 KECCAK256 SLOAD ADD PUSH1 0x0 DUP1 DUP7 PUSH20 0xFFFFFFFFFFFFFFFFFFFFFFFFFFFFFFFFFFFFFFFF AND PUSH20 0xFFFFFFFFFFFFFFFFFFFFFFFFFFFFFFFFFFFFFFFF AND DUP2 MSTORE PUSH1 0x20 ADD SWAP1 DUP2 MSTORE PUSH1 0x20 ADD PUSH1 0x0 KECCAK256 PUSH1 0x0 CALLER PUSH20 0xFFFFFFFFFFFFFFFFFFFFFFFFFFFFFFFFFFFFFFFF AND PUSH20 0xFFFFFFFFFFFFFFFFFFFFFFFFFFFFFFFFFFFFFFFF AND DUP2 MSTORE PUSH1 0x20 ADD SWAP1 DUP2 MSTORE PUSH1 0x20 ADD PUSH1 0x0 KECCAK256 DUP2 SWAP1 SSTORE POP PUSH32 0x42270714C8E080CF3FC90C2BF81C4756C5628788E72F50E6D7BA59396EAE83B6 DUP5 DUP5 DUP5 DUP5 PUSH1 0x40 MLOAD DUP1 DUP6 PUSH20 0xFFFFFFFFFFFFFFFFFFFFFFFFFFFFFFFFFFFFFFFF AND DUP2 MSTORE PUSH1 0x20 ADD DUP5 DUP2 MSTORE PUSH1 0x20 ADD DUP4 PUSH20 0xFFFFFFFFFFFFFFFFFFFFFFFFFFFFFFFFFFFFFFFF AND DUP2 MSTORE PUSH1 0x20 ADD DUP3 PUSH2 0xFFFF AND DUP2 MSTORE PUSH1 0x20 ADD SWAP5 POP POP POP POP POP PUSH1 0x40 MLOAD DUP1 SWAP2 SUB SWAP1 LOG1 POP POP POP POP JUMP JUMPDEST PUSH1 0x1 SLOAD DUP2 JUMP JUMPDEST DUP3 DUP5 EQ PUSH2 0x77C JUMPI PUSH1 0x40 MLOAD PUSH32 0x8C379A000000000000000000000000000000000000000000000000000000000 DUP2 MSTORE PUSH1 0x4 ADD DUP1 DUP1 PUSH1 0x20 ADD DUP3 DUP2 SUB DUP3 MSTORE PUSH1 0x27 DUP2 MSTORE PUSH1 0x20 ADD DUP1 PUSH2 0x9B6 PUSH1 0x27 SWAP2 CODECOPY PUSH1 0x40 ADD SWAP2 POP POP PUSH1 0x40 MLOAD DUP1 SWAP2 SUB SWAP1 REVERT JUMPDEST DUP4 PUSH1 0x0 DUP1 DUP8 PUSH20 0xFFFFFFFFFFFFFFFFFFFFFFFFFFFFFFFFFFFFFFFF AND PUSH20 0xFFFFFFFFFFFFFFFFFFFFFFFFFFFFFFFFFFFFFFFF AND DUP2 MSTORE PUSH1 0x20 ADD SWAP1 DUP2 MSTORE PUSH1 0x20 ADD PUSH1 0x0 KECCAK256 PUSH1 0x0 CALLER PUSH20 0xFFFFFFFFFFFFFFFFFFFFFFFFFFFFFFFFFFFFFFFF AND PUSH20 0xFFFFFFFFFFFFFFFFFFFFFFFFFFFFFFFFFFFFFFFF AND DUP2 MSTORE PUSH1 0x20 ADD SWAP1 DUP2 MSTORE PUSH1 0x20 ADD PUSH1 0x0 KECCAK256 SLOAD ADD PUSH1 0x0 DUP1 DUP8 PUSH20 0xFFFFFFFFFFFFFFFFFFFFFFFFFFFFFFFFFFFFFFFF AND PUSH20 0xFFFFFFFFFFFFFFFFFFFFFFFFFFFFFFFFFFFFFFFF AND DUP2 MSTORE PUSH1 0x20 ADD SWAP1 DUP2 MSTORE PUSH1 0x20 ADD PUSH1 0x0 KECCAK256 PUSH1 0x0 CALLER PUSH20 0xFFFFFFFFFFFFFFFFFFFFFFFFFFFFFFFFFFFFFFFF AND PUSH20 0xFFFFFFFFFFFFFFFFFFFFFFFFFFFFFFFFFFFFFFFF AND DUP2 MSTORE PUSH1 0x20 ADD SWAP1 DUP2 MSTORE PUSH1 0x20 ADD PUSH1 0x0 KECCAK256 DUP2 SWAP1 SSTORE POP PUSH32 0x42270714C8E080CF3FC90C2BF81C4756C5628788E72F50E6D7BA59396EAE83B6 DUP6 DUP6 DUP5 DUP5 PUSH1 0x40 MLOAD DUP1 DUP6 PUSH20 0xFFFFFFFFFFFFFFFFFFFFFFFFFFFFFFFFFFFFFFFF AND DUP2 MSTORE PUSH1 0x20 ADD DUP5 DUP2 MSTORE PUSH1 0x20 ADD DUP4 PUSH20 0xFFFFFFFFFFFFFFFFFFFFFFFFFFFFFFFFFFFFFFFF AND DUP2 MSTORE PUSH1 0x20 ADD DUP3 PUSH2 0xFFFF AND DUP2 MSTORE PUSH1 0x20 ADD SWAP5 POP POP POP POP POP PUSH1 0x40 MLOAD DUP1 SWAP2 SUB SWAP1 LOG1 PUSH32 0x4F7E6A99A5C94B3F3E0645725E695A02ED58DA3418CF01DFA74B734EE3468F6E PUSH1 0x0 CALLER PUSH1 0x2 PUSH1 0x0 SWAP1 SLOAD SWAP1 PUSH2 0x100 EXP SWAP1 DIV PUSH20 0xFFFFFFFFFFFFFFFFFFFFFFFFFFFFFFFFFFFFFFFF AND PUSH1 0x1 SLOAD PUSH1 0x40 MLOAD DUP1 DUP6 PUSH20 0xFFFFFFFFFFFFFFFFFFFFFFFFFFFFFFFFFFFFFFFF AND DUP2 MSTORE PUSH1 0x20 ADD DUP5 PUSH20 0xFFFFFFFFFFFFFFFFFFFFFFFFFFFFFFFFFFFFFFFF AND DUP2 MSTORE PUSH1 0x20 ADD DUP4 PUSH20 0xFFFFFFFFFFFFFFFFFFFFFFFFFFFFFFFFFFFFFFFF AND DUP2 MSTORE PUSH1 0x20 ADD DUP3 DUP2 MSTORE PUSH1 0x20 ADD SWAP5 POP POP POP POP POP PUSH1 0x40 MLOAD DUP1 SWAP2 SUB SWAP1 LOG1 POP POP POP POP POP JUMP INVALID DIFFICULTY PUSH6 0x706F73697420 PUSH2 0x6D6F PUSH22 0x6E74206D75737420657175616C20626F72726F772061 PUSH14 0x6F756E74A2646970667358221220 DUP4 ADDRESS SWAP11 0xEF 0xD5 0xCD 0xD4 PUSH11 0x74690A0AD24F42CD4695C2 REVERT PUSH9 0x6179F8407885C056E5 EXTCODEHASH 0x26 PUSH5 0x736F6C6343 STOP MOD 0xC STOP CALLER "
				},
				"gasEstimates": {
					"creation": {
						"codeDepositCost": "515600",
						"executionCost": "549",
						"totalCost": "516149"
					},
					"external": {
						"amount()": "1071",
						"assets(address,address)": "1267",
						"depositDAI(address,uint256,address,uint16)": "23478",
						"depositETH(address,uint256,address,uint16)": "23500",
						"depositETHAndBorrowDAI(address,uint256,uint256,address,uint16)": "infinite",
						"to()": "1025"
					}
				},
				"methodIdentifiers": {
					"amount()": "aa8c217c",
					"assets(address,address)": "2108234d",
					"depositDAI(address,uint256,address,uint16)": "704e0818",
					"depositETH(address,uint256,address,uint16)": "7181b77b",
					"depositETHAndBorrowDAI(address,uint256,uint256,address,uint16)": "b95d02fe",
					"to()": "13151981"
				}
			},
			"storageLayout": {
				"storage": [
					{
						"astId": 17,
						"contract": "src/backend/contracts/AaveDeFiApp.sol:AaveDeFiApp",
						"label": "assets",
						"offset": 0,
						"slot": "0",
						"type": "t_mapping(t_address,t_mapping(t_address,t_uint256))"
					},
					{
						"astId": 19,
						"contract": "src/backend/contracts/AaveDeFiApp.sol:AaveDeFiApp",
						"label": "amount",
						"offset": 0,
						"slot": "1",
						"type": "t_uint256"
					},
					{
						"astId": 21,
						"contract": "src/backend/contracts/AaveDeFiApp.sol:AaveDeFiApp",
						"label": "to",
						"offset": 0,
						"slot": "2",
						"type": "t_address"
					}
				],
				"types": {
					"t_address": {
						"encoding": "inplace",
						"label": "address",
						"numberOfBytes": "20"
					},
					"t_mapping(t_address,t_mapping(t_address,t_uint256))": {
						"encoding": "mapping",
						"key": "t_address",
						"label": "mapping(address => mapping(address => uint256))",
						"numberOfBytes": "32",
						"value": "t_mapping(t_address,t_uint256)"
					},
					"t_mapping(t_address,t_uint256)": {
						"encoding": "mapping",
						"key": "t_address",
						"label": "mapping(address => uint256)",
						"numberOfBytes": "32",
						"value": "t_uint256"
					},
					"t_uint256": {
						"encoding": "inplace",
						"label": "uint256",
						"numberOfBytes": "32"
					}
				}
			},
			"userdoc": {
				"kind": "user",
				"methods": {},
				"version": 1
			}
		}
	}
}