{
  "_format": "hh-sol-artifact-1",
  "contractName": "AaveDeFiApp",
  "sourceName": "src/backend/contracts/AaveDeFiApp.sol",
  "abi": [
    {
      "inputs": [],
      "name": "HelloWorld",
      "outputs": [
        {
          "internalType": "string",
          "name": "",
          "type": "string"
        }
      ],
      "stateMutability": "pure",
      "type": "function"
    }
  ],
  "bytecode": "0x608060405234801561001057600080fd5b5061011e806100206000396000f3fe6080604052348015600f57600080fd5b506004361060285760003560e01c80637fffb7bd14602d575b600080fd5b603360ab565b6040518080602001828103825283818151815260200191508051906020019080838360005b8381101560715780820151818401526020810190506058565b50505050905090810190601f168015609d5780820380516001836020036101000a031916815260200191505b509250505060405180910390f35b60606040518060400160405280600b81526020017f48656c6c6f20576f726c6400000000000000000000000000000000000000000081525090509056fea2646970667358221220b6caa642a37b4225070b8e1570bb147156dd3f541dc1a0fa5cdc586f2efa595d64736f6c634300060c0033",
  "linkReferences": {},
  "deployedLinkReferences": {}
}