{
  "_format": "hh-sol-artifact-1",
  "contractName": "AaveDeFi",
  "sourceName": "src/backend/contracts/AaveDeFiApp.sol",
  "abi": [
    {
      "inputs": [],
      "stateMutability": "nonpayable",
      "type": "constructor"
    },
    {
      "anonymous": false,
      "inputs": [
        {
          "indexed": false,
          "internalType": "uint256",
          "name": "ethAmountDeposited",
          "type": "uint256"
        },
        {
          "indexed": false,
          "internalType": "uint256",
          "name": "totalETHDeposits",
          "type": "uint256"
        },
        {
          "indexed": false,
          "internalType": "uint256",
          "name": "priceDAI",
          "type": "uint256"
        },
        {
          "indexed": false,
          "internalType": "uint256",
          "name": "safeMaxDAIBorrow",
          "type": "uint256"
        },
        {
          "indexed": false,
          "internalType": "uint256",
          "name": "totalDAIBorrows",
          "type": "uint256"
        }
      ],
      "name": "DepositBorrow",
      "type": "event"
    },
    {
      "inputs": [
        {
          "internalType": "uint256",
          "name": "safeMaxDAIBorrow",
          "type": "uint256"
        }
      ],
      "name": "borrowDAIAgainstETH",
      "outputs": [],
      "stateMutability": "payable",
      "type": "function"
    },
    {
      "inputs": [],
      "name": "daiEthprice",
      "outputs": [
        {
          "internalType": "uint256",
          "name": "",
          "type": "uint256"
        }
      ],
      "stateMutability": "view",
      "type": "function"
    },
    {
      "inputs": [],
      "name": "lendingPool",
      "outputs": [
        {
          "internalType": "contract ILendingPool",
          "name": "",
          "type": "address"
        }
      ],
      "stateMutability": "view",
      "type": "function"
    },
    {
      "inputs": [],
      "name": "name",
      "outputs": [
        {
          "internalType": "string",
          "name": "",
          "type": "string"
        }
      ],
      "stateMutability": "view",
      "type": "function"
    },
    {
      "inputs": [],
      "name": "priceOracle",
      "outputs": [
        {
          "internalType": "contract IPriceOracle",
          "name": "",
          "type": "address"
        }
      ],
      "stateMutability": "view",
      "type": "function"
    },
    {
      "inputs": [],
      "name": "provider",
      "outputs": [
        {
          "internalType": "contract ILendingPoolAddressesProvider",
          "name": "",
          "type": "address"
        }
      ],
      "stateMutability": "view",
      "type": "function"
    },
    {
      "inputs": [
        {
          "internalType": "address",
          "name": "",
          "type": "address"
        }
      ],
      "name": "totalDAIBorrows",
      "outputs": [
        {
          "internalType": "uint256",
          "name": "",
          "type": "uint256"
        }
      ],
      "stateMutability": "view",
      "type": "function"
    },
    {
      "inputs": [
        {
          "internalType": "address",
          "name": "",
          "type": "address"
        }
      ],
      "name": "totalETHDeposits",
      "outputs": [
        {
          "internalType": "uint256",
          "name": "",
          "type": "uint256"
        }
      ],
      "stateMutability": "view",
      "type": "function"
    },
    {
      "inputs": [],
      "name": "wethGateway",
      "outputs": [
        {
          "internalType": "contract IWETHGateway",
          "name": "",
          "type": "address"
        }
      ],
      "stateMutability": "view",
      "type": "function"
    },
    {
      "stateMutability": "payable",
      "type": "receive"
    }
  ],
  "bytecode": "0x60806040526040518060400160405280600c81526020017f4d5920416176652044654669000000000000000000000000000000000000000081525060009080519060200190620000519291906200042f565b503480156200005f57600080fd5b50732f39d218133afab8f2b819b1066c7e434ad94e9e600460006101000a81548173ffffffffffffffffffffffffffffffffffffffff021916908373ffffffffffffffffffffffffffffffffffffffff160217905550600460009054906101000a900473ffffffffffffffffffffffffffffffffffffffff1673ffffffffffffffffffffffffffffffffffffffff16630261bf8b6040518163ffffffff1660e01b815260040160206040518083038186803b1580156200011e57600080fd5b505afa15801562000133573d6000803e3d6000fd5b505050506040513d601f19601f820116820180604052508101906200015991906200050d565b600860006101000a81548173ffffffffffffffffffffffffffffffffffffffff021916908373ffffffffffffffffffffffffffffffffffffffff160217905550600860009054906101000a900473ffffffffffffffffffffffffffffffffffffffff16600560006101000a81548173ffffffffffffffffffffffffffffffffffffffff021916908373ffffffffffffffffffffffffffffffffffffffff16021790555073cc9a0b7c43dc2a5f023bb9b738e45b0ef6b06e04600660006101000a81548173ffffffffffffffffffffffffffffffffffffffff021916908373ffffffffffffffffffffffffffffffffffffffff16021790555073a50ba011c48153de246e5192c8f9258a2ba79ca9600760006101000a81548173ffffffffffffffffffffffffffffffffffffffff021916908373ffffffffffffffffffffffffffffffffffffffff160217905550736b175474e89094c44da98b954eedeac495271d0f600a60006101000a81548173ffffffffffffffffffffffffffffffffffffffff021916908373ffffffffffffffffffffffffffffffffffffffff16021790555073030ba81f1c18d280636f32af80b9aad02cf0854e600960006101000a81548173ffffffffffffffffffffffffffffffffffffffff021916908373ffffffffffffffffffffffffffffffffffffffff160217905550600760009054906101000a900473ffffffffffffffffffffffffffffffffffffffff1673ffffffffffffffffffffffffffffffffffffffff1663b3596f07600a60009054906101000a900473ffffffffffffffffffffffffffffffffffffffff166040518263ffffffff1660e01b8152600401620003cf919062000576565b60206040518083038186803b158015620003e857600080fd5b505afa158015620003fd573d6000803e3d6000fd5b505050506040513d601f19601f8201168201806040525081019062000423919062000539565b6003819055506200066a565b8280546200043d90620005d1565b90600052602060002090601f016020900481019282620004615760008555620004ad565b82601f106200047c57805160ff1916838001178555620004ad565b82800160010185558215620004ad579182015b82811115620004ac5782518255916020019190600101906200048f565b5b509050620004bc9190620004c0565b5090565b5b80821115620004db576000816000905550600101620004c1565b5090565b600081519050620004f08162000636565b92915050565b600081519050620005078162000650565b92915050565b6000602082840312156200052057600080fd5b60006200053084828501620004df565b91505092915050565b6000602082840312156200054c57600080fd5b60006200055c84828501620004f6565b91505092915050565b620005708162000593565b82525050565b60006020820190506200058d600083018462000565565b92915050565b6000620005a082620005a7565b9050919050565b600073ffffffffffffffffffffffffffffffffffffffff82169050919050565b6000819050919050565b60006002820490506001821680620005ea57607f821691505b6020821081141562000601576200060062000607565b5b50919050565b7f4e487b7100000000000000000000000000000000000000000000000000000000600052602260045260246000fd5b620006418162000593565b81146200064d57600080fd5b50565b6200065b81620005c7565b81146200066757600080fd5b50565b610eba806200067a6000396000f3fe60806040526004361061008a5760003560e01c8063a59a997311610059578063a59a997314610133578063c49d0ef01461015e578063c5e10eef1461019b578063d65745ae146101c6578063e9d106a91461020357610091565b806306fdde0314610096578063085d4883146100c15780632630c12f146100ec5780634f1b1ec91461011757610091565b3661009157005b600080fd5b3480156100a257600080fd5b506100ab61022e565b6040516100b89190610b83565b60405180910390f35b3480156100cd57600080fd5b506100d66102bc565b6040516100e39190610b17565b60405180910390f35b3480156100f857600080fd5b506101016102e2565b60405161010e9190610b4d565b60405180910390f35b610131600480360381019061012c9190610955565b610308565b005b34801561013f57600080fd5b5061014861082d565b6040516101559190610b32565b60405180910390f35b34801561016a57600080fd5b5061018560048036038101906101809190610903565b610853565b6040516101929190610ba5565b60405180910390f35b3480156101a757600080fd5b506101b061086b565b6040516101bd9190610b68565b60405180910390f35b3480156101d257600080fd5b506101ed60048036038101906101e89190610903565b610891565b6040516101fa9190610ba5565b60405180910390f35b34801561020f57600080fd5b506102186108a9565b6040516102259190610ba5565b60405180910390f35b6000805461023b90610d9e565b80601f016020809104026020016040519081016040528092919081815260200182805461026790610d9e565b80156102b45780601f10610289576101008083540402835291602001916102b4565b820191906000526020600020905b81548152906001019060200180831161029757829003601f168201915b505050505081565b600460009054906101000a900473ffffffffffffffffffffffffffffffffffffffff1681565b600760009054906101000a900473ffffffffffffffffffffffffffffffffffffffff1681565b34600160003373ffffffffffffffffffffffffffffffffffffffff1673ffffffffffffffffffffffffffffffffffffffff168152602001908152602001600020546103539190610c2f565b600160003373ffffffffffffffffffffffffffffffffffffffff1673ffffffffffffffffffffffffffffffffffffffff16815260200190815260200160002081905550600080600290506000309050600660009054906101000a900473ffffffffffffffffffffffffffffffffffffffff1673ffffffffffffffffffffffffffffffffffffffff1663474cf53d34600860009054906101000a900473ffffffffffffffffffffffffffffffffffffffff1684876040518563ffffffff1660e01b815260040161042493929190610a64565b6000604051808303818588803b15801561043d57600080fd5b505af1158015610451573d6000803e3d6000fd5b50505050506000600760009054906101000a900473ffffffffffffffffffffffffffffffffffffffff1673ffffffffffffffffffffffffffffffffffffffff1663b3596f07600a60009054906101000a900473ffffffffffffffffffffffffffffffffffffffff166040518263ffffffff1660e01b81526004016104d59190610a49565b60206040518083038186803b1580156104ed57600080fd5b505afa158015610501573d6000803e3d6000fd5b505050506040513d601f19601f82011682018060405250810190610525919061097e565b9050806003819055506000811415610566577f4e487b7100000000000000000000000000000000000000000000000000000000600052600160045260246000fd5b600560009054906101000a900473ffffffffffffffffffffffffffffffffffffffff1673ffffffffffffffffffffffffffffffffffffffff1663a415bcad600a60009054906101000a900473ffffffffffffffffffffffffffffffffffffffff16878688876040518663ffffffff1660e01b81526004016105eb959493929190610ac4565b600060405180830381600087803b15801561060557600080fd5b505af1158015610619573d6000803e3d6000fd5b5050505084600260003373ffffffffffffffffffffffffffffffffffffffff1673ffffffffffffffffffffffffffffffffffffffff168152602001908152602001600020546106689190610c2f565b600260003373ffffffffffffffffffffffffffffffffffffffff1673ffffffffffffffffffffffffffffffffffffffff168152602001908152602001600020819055506000600a60009054906101000a900473ffffffffffffffffffffffffffffffffffffffff1690508073ffffffffffffffffffffffffffffffffffffffff1663a9059cbb33886040518363ffffffff1660e01b815260040161070d929190610a9b565b602060405180830381600087803b15801561072757600080fd5b505af115801561073b573d6000803e3d6000fd5b505050506040513d601f19601f8201168201806040525081019061075f919061092c565b61076857600080fd5b7f867b23624b4dbceb1fa82a503cb5900610bd95b713d95683a52603a18120d97c34600160003373ffffffffffffffffffffffffffffffffffffffff1673ffffffffffffffffffffffffffffffffffffffff168152602001908152602001600020548489600260003373ffffffffffffffffffffffffffffffffffffffff1673ffffffffffffffffffffffffffffffffffffffff1681526020019081526020016000205460405161081d959493929190610bc0565b60405180910390a1505050505050565b600560009054906101000a900473ffffffffffffffffffffffffffffffffffffffff1681565b60016020528060005260406000206000915090505481565b600660009054906101000a900473ffffffffffffffffffffffffffffffffffffffff1681565b60026020528060005260406000206000915090505481565b60035481565b6000813590506108be81610e3f565b92915050565b6000815190506108d381610e56565b92915050565b6000813590506108e881610e6d565b92915050565b6000815190506108fd81610e6d565b92915050565b60006020828403121561091557600080fd5b6000610923848285016108af565b91505092915050565b60006020828403121561093e57600080fd5b600061094c848285016108c4565b91505092915050565b60006020828403121561096757600080fd5b6000610975848285016108d9565b91505092915050565b60006020828403121561099057600080fd5b600061099e848285016108ee565b91505092915050565b6109b081610c85565b82525050565b6109bf81610cdb565b82525050565b6109ce81610cff565b82525050565b6109dd81610d23565b82525050565b6109ec81610d47565b82525050565b60006109fd82610c13565b610a078185610c1e565b9350610a17818560208601610d6b565b610a2081610e2e565b840191505092915050565b610a3481610ca3565b82525050565b610a4381610cd1565b82525050565b6000602082019050610a5e60008301846109a7565b92915050565b6000606082019050610a7960008301866109a7565b610a8660208301856109a7565b610a936040830184610a2b565b949350505050565b6000604082019050610ab060008301856109a7565b610abd6020830184610a3a565b9392505050565b600060a082019050610ad960008301886109a7565b610ae66020830187610a3a565b610af36040830186610a3a565b610b006060830185610a2b565b610b0d60808301846109a7565b9695505050505050565b6000602082019050610b2c60008301846109b6565b92915050565b6000602082019050610b4760008301846109c5565b92915050565b6000602082019050610b6260008301846109d4565b92915050565b6000602082019050610b7d60008301846109e3565b92915050565b60006020820190508181036000830152610b9d81846109f2565b905092915050565b6000602082019050610bba6000830184610a3a565b92915050565b600060a082019050610bd56000830188610a3a565b610be26020830187610a3a565b610bef6040830186610a3a565b610bfc6060830185610a3a565b610c096080830184610a3a565b9695505050505050565b600081519050919050565b600082825260208201905092915050565b6000610c3a82610cd1565b9150610c4583610cd1565b9250827fffffffffffffffffffffffffffffffffffffffffffffffffffffffffffffffff03821115610c7a57610c79610dd0565b5b828201905092915050565b6000610c9082610cb1565b9050919050565b60008115159050919050565b600061ffff82169050919050565b600073ffffffffffffffffffffffffffffffffffffffff82169050919050565b6000819050919050565b6000610ce682610ced565b9050919050565b6000610cf882610cb1565b9050919050565b6000610d0a82610d11565b9050919050565b6000610d1c82610cb1565b9050919050565b6000610d2e82610d35565b9050919050565b6000610d4082610cb1565b9050919050565b6000610d5282610d59565b9050919050565b6000610d6482610cb1565b9050919050565b60005b83811015610d89578082015181840152602081019050610d6e565b83811115610d98576000848401525b50505050565b60006002820490506001821680610db657607f821691505b60208210811415610dca57610dc9610dff565b5b50919050565b7f4e487b7100000000000000000000000000000000000000000000000000000000600052601160045260246000fd5b7f4e487b7100000000000000000000000000000000000000000000000000000000600052602260045260246000fd5b6000601f19601f8301169050919050565b610e4881610c85565b8114610e5357600080fd5b50565b610e5f81610c97565b8114610e6a57600080fd5b50565b610e7681610cd1565b8114610e8157600080fd5b5056fea2646970667358221220423fdfa203d7172e1c3da3079ca30df040f40627bec04573033aa6852fe8dba164736f6c63430008040033",
  "linkReferences": {},
  "deployedLinkReferences": {}
}