{
    "contractName": "AaveDeFiApp",
    "abi": [
        {
            "anonymous": false,
            "inputs": [
                {
                    "indexed": false,
                    "internalType": "address",
                    "name": "asset",
                    "type": "address"
                },
                {
                    "indexed": false,
                    "internalType": "uint256",
                    "name": "amount",
                    "type": "uint256"
                },
                {
                    "indexed": false,
                    "internalType": "address",
                    "name": "onBehalfOf",
                    "type": "address"
                },
                {
                    "indexed": false,
                    "internalType": "uint16",
                    "name": "referralCode",
                    "type": "uint16"
                }
            ],
            "name": "Deposit",
            "type": "event"
        },
        {
            "anonymous": false,
            "inputs": [
                {
                    "indexed": false,
                    "internalType": "address",
                    "name": "reserve",
                    "type": "address"
                },
                {
                    "indexed": false,
                    "internalType": "address",
                    "name": "user",
                    "type": "address"
                },
                {
                    "indexed": false,
                    "internalType": "address",
                    "name": "to",
                    "type": "address"
                },
                {
                    "indexed": false,
                    "internalType": "uint256",
                    "name": "amount",
                    "type": "uint256"
                }
            ],
            "name": "WithDraw",
            "type": "event"
        },
        {
            "inputs": [],
            "name": "amount",
            "outputs": [
                {
                    "internalType": "uint256",
                    "name": "",
                    "type": "uint256"
                }
            ],
            "stateMutability": "view",
            "type": "function"
        },
        {
            "inputs": [],
            "name": "asset",
            "outputs": [
                {
                    "internalType": "address",
                    "name": "",
                    "type": "address"
                }
            ],
            "stateMutability": "view",
            "type": "function"
        },
        {
            "inputs": [
                {
                    "internalType": "address",
                    "name": "_asset",
                    "type": "address"
                },
                {
                    "internalType": "uint256",
                    "name": "_amount",
                    "type": "uint256"
                },
                {
                    "internalType": "address",
                    "name": "_onBehalfOf",
                    "type": "address"
                },
                {
                    "internalType": "uint16",
                    "name": "_referralCode",
                    "type": "uint16"
                }
            ],
            "name": "depositWithDraw",
            "outputs": [],
            "stateMutability": "nonpayable",
            "type": "function"
        },
        {
            "inputs": [],
            "name": "to",
            "outputs": [
                {
                    "internalType": "address",
                    "name": "",
                    "type": "address"
                }
            ],
            "stateMutability": "view",
            "type": "function"
        }
    ],
    "bytecode": "608060405234801561001057600080fd5b5061018c806100206000396000f3fe608060405234801561001057600080fd5b506004361061004c5760003560e01c80631315198114610051578063316f5d501461007557806338d52e0f146100b6578063aa8c217c146100be575b600080fd5b6100596100d8565b604080516001600160a01b039092168252519081900360200190f35b6100b46004803603608081101561008b57600080fd5b5080356001600160a01b0390811691602081013591604082013516906060013561ffff166100e7565b005b610059610141565b6100c6610150565b60408051918252519081900360200190f35b6002546001600160a01b031681565b604080516001600160a01b0380871682526020820186905284168183015261ffff8316606082015290517f42270714c8e080cf3fc90c2bf81c4756c5628788e72f50e6d7ba59396eae83b69181900360800190a150505050565b6000546001600160a01b031681565b6001548156fea264697066735822122069f2bd23b6b079ef672f3c68efc6c5e6eb18046b2aebdc0f8dceebda5429e3eb64736f6c634300060c0033",
    "sourcePath": "/Users/sam4130/Documents/coding-challenge/coding-starter/src/backend/contracts/AaveDeFiApp.sol",
    "compiler": {
        "name": "solc",
        "version": "0.6.12+commit.27d51765"
    },
    "functionHashes": {
        "amount()": "aa8c217c",
        "asset()": "38d52e0f",
        "depositWithDraw(address,uint256,address,uint16)": "316f5d50",
        "to()": "13151981"
    },
    "gasEstimates": {
        "creation": {
            "codeDepositCost": "79200",
            "executionCost": "129",
            "totalCost": "79329"
        },
        "external": {
            "amount()": "1042",
            "asset()": "1059",
            "depositWithDraw(address,uint256,address,uint16)": "2187",
            "to()": "1015"
        }
    }
}