{
    "contractName": "AaveDeFiApp",
    "abi": [
        {
            "anonymous": false,
            "inputs": [
                {
                    "indexed": false,
                    "internalType": "address",
                    "name": "asset",
                    "type": "address"
                },
                {
                    "indexed": false,
                    "internalType": "uint256",
                    "name": "amount",
                    "type": "uint256"
                },
                {
                    "indexed": false,
                    "internalType": "address",
                    "name": "onBehalfOf",
                    "type": "address"
                },
                {
                    "indexed": false,
                    "internalType": "uint16",
                    "name": "referralCode",
                    "type": "uint16"
                }
            ],
            "name": "Deposit",
            "type": "event"
        },
        {
            "anonymous": false,
            "inputs": [
                {
                    "indexed": false,
                    "internalType": "address",
                    "name": "reserve",
                    "type": "address"
                },
                {
                    "indexed": false,
                    "internalType": "address",
                    "name": "user",
                    "type": "address"
                },
                {
                    "indexed": false,
                    "internalType": "address",
                    "name": "to",
                    "type": "address"
                },
                {
                    "indexed": false,
                    "internalType": "uint256",
                    "name": "amount",
                    "type": "uint256"
                }
            ],
            "name": "WithDraw",
            "type": "event"
        },
        {
            "inputs": [],
            "name": "amount",
            "outputs": [
                {
                    "internalType": "uint256",
                    "name": "",
                    "type": "uint256"
                }
            ],
            "stateMutability": "view",
            "type": "function"
        },
        {
            "inputs": [
                {
                    "internalType": "address",
                    "name": "",
                    "type": "address"
                },
                {
                    "internalType": "address",
                    "name": "",
                    "type": "address"
                }
            ],
            "name": "assets",
            "outputs": [
                {
                    "internalType": "uint256",
                    "name": "",
                    "type": "uint256"
                }
            ],
            "stateMutability": "view",
            "type": "function"
        },
        {
            "inputs": [
                {
                    "internalType": "address",
                    "name": "_asset",
                    "type": "address"
                },
                {
                    "internalType": "uint256",
                    "name": "_amount",
                    "type": "uint256"
                },
                {
                    "internalType": "address",
                    "name": "_onBehalfOf",
                    "type": "address"
                },
                {
                    "internalType": "uint16",
                    "name": "_referralCode",
                    "type": "uint16"
                }
            ],
            "name": "depositDAI",
            "outputs": [],
            "stateMutability": "nonpayable",
            "type": "function"
        },
        {
            "inputs": [
                {
                    "internalType": "address",
                    "name": "_asset",
                    "type": "address"
                },
                {
                    "internalType": "uint256",
                    "name": "_amount",
                    "type": "uint256"
                },
                {
                    "internalType": "address",
                    "name": "_onBehalfOf",
                    "type": "address"
                },
                {
                    "internalType": "uint16",
                    "name": "_referralCode",
                    "type": "uint16"
                }
            ],
            "name": "depositETH",
            "outputs": [],
            "stateMutability": "nonpayable",
            "type": "function"
        },
        {
            "inputs": [],
            "name": "to",
            "outputs": [
                {
                    "internalType": "address",
                    "name": "",
                    "type": "address"
                }
            ],
            "stateMutability": "view",
            "type": "function"
        }
    ],
    "bytecode": "608060405234801561001057600080fd5b50610239806100206000396000f3fe608060405234801561001057600080fd5b50600436106100575760003560e01c8063131519811461005c5780632108234d14610080578063704e0818146100c05780637181b77b146100c0578063aa8c217c14610101575b600080fd5b610064610109565b604080516001600160a01b039092168252519081900360200190f35b6100ae6004803603604081101561009657600080fd5b506001600160a01b0381358116916020013516610118565b60408051918252519081900360200190f35b6100ff600480360360808110156100d657600080fd5b5080356001600160a01b0390811691602081013591604082013516906060013561ffff16610132565b005b6100ae6101fd565b6002546001600160a01b031681565b600060208181529281526040808220909352908152205481565b60008311610187576040805162461bcd60e51b815260206004820152601d60248201527f416d6f756e74206d7573742062652067726561746572207468616e2030000000604482015290519081900360640190fd5b6001600160a01b03848116600081815260208181526040808320338452825291829020805488019055815192835282018690529184168183015261ffff8316606082015290517f42270714c8e080cf3fc90c2bf81c4756c5628788e72f50e6d7ba59396eae83b69181900360800190a150505050565b6001548156fea2646970667358221220d1705e7c82dd287bba1f5180db80670ea6907b2efe360eecc341b1497c92fa4364736f6c634300060c0033",
    "sourcePath": "/Users/sam4130/Documents/coding-challenge/coding-starter/src/backend/contracts/AaveDeFiApp.sol",
    "compiler": {
        "name": "solc",
        "version": "0.6.12+commit.27d51765"
    },
    "functionHashes": {
        "amount()": "aa8c217c",
        "assets(address,address)": "2108234d",
        "depositDAI(address,uint256,address,uint16)": "704e0818",
        "depositETH(address,uint256,address,uint16)": "7181b77b",
        "to()": "13151981"
    },
    "gasEstimates": {
        "creation": {
            "codeDepositCost": "113800",
            "executionCost": "159",
            "totalCost": "113959"
        },
        "external": {
            "amount()": "1064",
            "assets(address,address)": "1211",
            "depositDAI(address,uint256,address,uint16)": "23184",
            "depositETH(address,uint256,address,uint16)": "23206",
            "to()": "1015"
        }
    }
}